:1000000048C2000077C2000075C2000073C2000041
:1000100071C200006FC200006DC200006BC2000020
:1000200069C2000067C2000065C2000063C2000030
:1000300061C200005FC200005DC200005BC2000040
:1000400059C2000057C2000055C2000053C2000050
:1000500051C200004FC200004DC200000C94851632
:1000600049C200000C9459170C942F1743C200008A
:1000700041C200003FC200003DC200003BC2000080
:1000800039C2000037C2000035C2000033C2000090
:100090000C94F9160C94CF162DC200002BC2000050
:1000A00029C2000027C2000025C2000023C20000B0
:1000B00021C200001FC200001DC200001BC20000C0
:1000C00019C2000017C2000015C2000013C20000D0
:1000D00011C200000FC200000DC200000BC20000E0
:1000E00009C200006364696E6F70737578585B00B5
:1000F00044756D700000000000000000000000006A
:10010000000000000000000000534F43000000000A
:1001100000000000000000000000000000000000DF
:100120000000560000000000000000000000000079
:10013000000000000000000000000050000000006F
:1001400000000000000000000000000000000000AF
:100150000000000049000000000000000000000056
:1001600000000000000000000000000000416C6181
:10017000726D0000000000000000000000000000A0
:100180000000000000005650560000000000000073
:10019000000000000000000000000000000000500F
:1001A00050560000000000000000000000000000A9
:1001B0000000000000000000494C000000000000AA
:1001C000000000000000000000000000000000002F
:1001D000004C4F41440000000000000000000000FF
:1001E0000000000000000000000052656C61790012
:1001F00000000000000000000000000000000000FF
:10020000000000415200000000000000000000005B
:10021000000000000000000000000000483139002C
:1002200000000000000000000000000000000000CE
:100230000000000000483230000000000000000014
:100240000000000000000000000000000000483234
:10025000310000000000000000000000000000006D
:1002600000000000000000483233000000000000E1
:10027000000000000000000000000000000000007E
:100280004552520000000000000000000000000085
:1002900000000000000000000043530000000000C8
:1002A000000000000000000000000000000000004E
:1002B00000004657000000000000000000000000A1
:1002C0000000000000000000000000504944000051
:1002D000000000000000000000000000000000001E
:1002E00000000000485344530000000000000000DC
:1002F000000000000000000000000000004D4F441E
:1003000045000000000000000000000000000000A8
:1003100000000000000041435F4F55545F5600004D
:10032000000000000000000000000000000000418C
:10033000435F4F55545F490000000000000000007B
:1003400000000000000000005741524E0000000075
:10035000000000000000000000000000000000009D
:10036000000000000000000000000000000000008D
:10037000000000000000000000007C3C3E5E2B3DC1
:100380003F2F5B5D3B2C2A225C0000000A0B020918
:100390000C0D0E080703040100000000000000001F
:1003A000000000000000000000000000000000004D
:1003B000000000000000121110000000000000000A
:1003C000000000000000000000000000000000002D
:1003D00000002200250028002B002E0031003400F0
:1003E00002010000050108010B01000021002400AA
:1003F00027002A002D003000330001010000040115
:1004000007010A0105050505070508080808020295
:1004100002020A0A0808040404040101010101019E
:1004200001010303030303030303040707070C0C81
:100430000C0C0C0C0C0C0202020206060606060648
:1004400006060B0B0B0B0B0B0B0B010210202008ED
:10045000081020401020408002010201080402011F
:10046000010204081020408080402010080402018E
:1004700080040201804020100804020108040201E7
:10048000010204081020408001020408102040806E
:100490008F1711241FBECFEFD1E2DEBFCDBF00E02A
:1004A0000CBF26E0A0EFB2E001C01D92A33BB20753
:1004B000E1F712E0A0E0B2E0E6E9FBE400E00BBF08
:1004C00002C007900D92A03FB107D9F712E0C9E42E
:1004D000D2E000E006C021970109802FFE010E94B2
:1004E0004F20C834D10780E00807A9F70E940C18F4
:1004F0000C94C92585CDFC01A089B18982E08C933B
:10050000A485B5851C92A685B78587E68C93108E49
:10051000A489B58986E08C93A289B3898C91806186
:100520008C93A289B3898C9188608C93A289B389BA
:100530008C9180688C930288F389E02D80818F7D77
:100540008083089590E0FC01E65BFB4F24918C5F73
:100550009B4FFC018491882399F090E0880F991FAC
:10056000FC01E651FC4FA591B491FC01E053FC4F16
:10057000859194918FB7F894EC91E22BEC938FBF17
:100580000895282F30E0F901E657FC4F9491F901C6
:10059000E65BFB4F44912C5F3B4FF90124912223F2
:1005A00009F435C0992311F191509231F8F4E92FF3
:1005B000F0E08827E152FD4F8F4F0C944F2010033D
:1005C0001403F10208030C03F60217031D032103B1
:1005D00027032B032F0335033903F6023D0343039F
:1005E0004703809180008F7780938000E22FF0E0B6
:1005F000EE0FFF1FE053FC4FA591B4918FB7F89415
:10060000EC91611148C040954E234C938FBF0895E3
:10061000809180008F7DE8CF80918000877FE4CF3C
:1006200084B58F7784BDE2CF84B58F7DFBCF809179
:10063000B0008F778093B000D9CF8091B0008F7DCC
:10064000F9CF809190008F7780939000CFCF8091E9
:1006500090008F7DF9CF80919000877FF5CF8091BA
:10066000A0008F778093A000C1CF8091A0008F7DE4
:10067000F9CF8091A000877FF5CF809120018F77FF
:1006800080932001B3CF809120018F7DF9CF80919D
:100690002001877FF5CF4E2BB8CF3FB7F8948091DC
:1006A000070390910803A0910903B0910A0326B5AE
:1006B000A89B05C02F3F19F00196A11DB11D3FBF9A
:1006C000BA2FA92F982F8827BC01CD01620F711D69
:1006D000811D911D42E0660F771F881F991F4A9563
:1006E000D1F708958F929F92AF92BF92CF92DF92EF
:1006F000EF92FF924B015C01D0DF6B017C01CDDFFB
:100700006C197D098E099F09683E7340810591052A
:10071000B0F321E0821A9108A108B10888EEC80E52
:1007200083E0D81EE11CF11C81149104A104B104E2
:1007300031F7FF90EF90DF90CF90BF90AF909F90F8
:100740008F9008952FB7F89460910303709104037C
:1007500080910503909106032FBF08950895AF92ED
:10076000BF92CF92DF92EF92FF920F931F93CF939E
:10077000DF936C017B018B01040F151FEB015E0100
:10078000AE18BF08C017D10759F06991D601ED9195
:10079000FC910190F081E02DC6011995892B79F724
:1007A000C501DF91CF911F910F91FF90EF90DF90E6
:1007B000CF90BF90AF900895FC01538D448D252FAD
:1007C00030E0842F90E0821B930B541710F0CF96EB
:1007D000089501970895FC01918D828D981761F01D
:1007E000A28DAE0FBF2FB11D5D968C91928D9F5F34
:1007F0009F73928F90E008958FEF9FEF0895FC0113
:10080000918D828D981731F0828DE80FF11D858DC5
:1008100090E008958FEF9FEF0895FC01918D228D58
:10082000892F90E0805C9F4F821B91098F739927DD
:1008300008958DE095E0F1DF21E0892B09F420E0B7
:10084000822F08958AEA95E0E8DF21E0892B09F4F8
:1008500020E0822F0895FC01A48DA80FB92FB11DAF
:10086000A35ABF4F2C91848D90E001968F739927E6
:10087000848FA689B7892C93A089B1898C918370C4
:1008800080648C93938D848D981306C00288F389BD
:10089000E02D80818F7D80830895EF92FF920F93EA
:1008A0001F93CF93DF93EC0181E0888F9B8D8C8D1C
:1008B00098131AC0E889F989808185FF15C09FB710
:1008C000F894EE89FF896083E889F98980818370D3
:1008D000806480839FBF81E090E0DF91CF911F9182
:1008E0000F91FF90EF900895F62E0B8D10E00F5FA3
:1008F0001F4F0F731127E02E8C8D8E110BC00FB67A
:1009000007FCFACFE889F989808185FFF5CFCE0110
:10091000A2DFF2CFEB8DEC0FFD2FF11DE35AFF4F5D
:10092000F0829FB7F8940B8FEA89FB8980818062FF
:10093000D0CFCF93DF93EC01888D8823B1F0AA89C3
:10094000BB89E889F9898C9185FD03C0808186FD8A
:100950000CC00FB607FCF7CF8C9185FFF2CF8081DA
:1009600085FFEDCFCE0177DFEACFDF91CF910895FC
:1009700080E090E0892B21F065DF81110E9400006A
:1009800080E090E0892B21F054DF81110E9400006B
:1009900080E090E0892B49F080E090E0892B29F0FD
:1009A0000E94000081110E94000080E090E0892BED
:1009B00049F080E090E0892B29F00E94000081112D
:1009C0000C94000008950895FC01DB0112968D91AE
:1009D0009C9113979383828388E492E09183808330
:1009E00014968C911497848315968C911597858312
:1009F00016964D915D916D917C9119974683578321
:100A0000608771871A964D915D916D917C911D97CC
:100A100042875387648775871E964D915D916D91CE
:100A20007C91519746875787608B718B52968C913A
:100A30005297828B53964D915D916D917C91569713
:100A4000438B548B658B768B57964D915D916D9151
:100A50007C915A97478B508F618F728F5B968D91E7
:100A60009C91948F838F0895DC015996ED91FC91B0
:100A70003097B9F083899489A589B68942855385D1
:100A800064857585841B950BA60BB70B811520E833
:100A90009207A105B10538F08FEF9FE7A0E0B0E025
:100AA000089590E080E00895DC0159968D919C9125
:100AB000009739F0DC01ED91FC910480F581E02D87
:100AC000199490E080E00895CF93DF931F92CDB703
:100AD000DEB76983DC01ED91FC910280F381E02DAA
:100AE00041E050E0BE016F5F7F4F19950F90DF919D
:100AF000CF9108958FB7F8948091F1028FBF089538
:100B000061E0FC0184813DDD8091F0028111109251
:100B1000F00208958EBD00000DB407FEFDCF8EB526
:100B200008958FEFF7CF0F931F93CF93DF93EC01CF
:100B300009DE8B01F6DF8F3F61F004DE601B710B75
:100B40006C177D07B8F380E0DF91CF911F910F9173
:100B5000089581E0F9CF8CBD9DBD0895CF93DF93BB
:100B6000EC018091F002811108C081E08093F002D5
:100B70008091900690919106EEDF60E08C81DF918C
:100B8000CF91FFCC8F929F92AF92BF92FF920F9323
:100B90001F93CF93DF93EC01F62E49015A018E810A
:100BA000882379F08F8198859C012F5F3F4F38878C
:100BB0002F838230924010F4B4DFF4CFCE01A0DF57
:100BC0001E82CE01CBDF8CE291E0ADDF8F2D806401
:100BD000A1DF08E110E0D501C401002E04C0B695E4
:100BE000A795979587950A94D2F794DF0850110935
:100BF000083F8FEF180779F785E9FF2021F028E0FB
:100C000087E8F2128FEF86DF10E08BDF8A8787FF9D
:100C100004C01F3F11F01F5FF8CFDF91CF911F91EC
:100C20000F91FF90BF90AF909F908F900895AF92DB
:100C3000BF92CF92DF92EF92FF920F931F93CF93C9
:100C4000DF93EC016901C801820F931F813092404C
:100C500048F58E81882379F088819981AA81BB81AA
:100C600084179507A607B70731F48F819885C816B2
:100C7000D90608F03CC0488359836A837B838B85FF
:100C8000833039F089E0440F551F661F771F8A951E
:100C9000D1F79A01AB0161E1CE0174DF882381F0C5
:100CA00083E08D83CE012CDF80E0DF91CF911F9117
:100CB0000F91FF90EF90DF90CF90BF90AF9008958D
:100CC00041DD5B012EDF8A878F3F59F43BDD6A19D6
:100CD0007B096D327140B0F38FE08D83CE0110DF60
:100CE000E1CF8E3F81F418861F8281E08E838F8151
:100CF00098858C159D0548F414DF8F8198850196A1
:100D000098878F83F4CF8DE0E8CF6701E00EF11E66
:100D100008DFF60181936F01EE15FF05C9F78F819A
:100D20009885080F191F18870F838985882319F064
:100D30000115124090F08E81882379F08F8198857B
:100D40009C012F5F3F4F38872F838230924010F4F1
:100D5000E8DEF4CFCE01D4DE1E8281E0A6CFCF92B2
:100D6000DF92EF92FF920F93CF93DF93EC01690133
:100D700082E1411551056105710591F08B85833044
:100D800039F089E0440F551F661F771F8A95D1F708
:100D90009A01AB0168E1CE01F5DE882319F084E009
:100DA0008D8326C08EEFB6DE76018EEFD81AF7015E
:100DB00081917F01AFDEEC14FD04C9F78FEFAADE4D
:100DC0008FEFA8DEAEDE8A878F71853069F401115E
:100DD00013C0CE0195DE81E0DF91CF910F91FF909E
:100DE000EF90DF90CF90089581E18D83CE0188DE72
:100DF000CE0186DE80E0F0CF88E592E094DE8111BE
:100E000002C085E1CDCF20E030E0A9016DE0CE0148
:100E1000B9DE882311F084E1C3CF83DE8111FBCFDB
:100E2000D8CF0F934091F3025091F4026091F502F4
:100E30007091F602411551056105710591F0082F79
:100E40002BE033E080910B0590910C0588DF88231F
:100E500049F01092F3021092F4021092F5021092EF
:100E6000F60281E00F9108950F93CF93C82F8091E0
:100E7000F202811105C0C1E08C2FCF910F9108952E
:100E800040910002509101026091020270910302B0
:100E90000C2F2BE033E080910B0590910C055FDF68
:100EA000811102C0C0E0E8CFCC2329F381E0B9DF93
:100EB0008823C1F31092F202DFCF8F929F92AF92FC
:100EC000BF92EF92FF920F931F93CF934B015C0160
:100ED000C42F8091000290910102A0910202B09172
:100EE000030288159905AA05BB0541F181E0BCDF25
:100EF00081110BC080E0CF911F910F91FF90EF9077
:100F0000BF90AF909F908F9008958BE0E82E83E084
:100F1000F82E00E012E030E020E0B501A40180915D
:100F20000B0590910C0583DE882321F3809200024B
:100F300090920102A0920202B09203024091F2024A
:100F40004C2B4093F20281E0D6CF8F929F92AF92CA
:100F5000BF92CF92DF92EF92FF92CF9327E436E0D9
:100F600030930C0520930B05882309F46BC040E0F7
:100F700060E070E0CB01A1DF81110BC080E0CF9178
:100F8000FF90EF90DF90CF90BF90AF909F908F90A9
:100F900008958091C9048F7789F78091D504909145
:100FA000D604A091D704B091D80484369105A10548
:100FB000B10520F3C090D104D090D204E090D304C6
:100FC000F090D404C114D104E104F104B9F240E07A
:100FD000C701B60172DF882389F2809116039091D0
:100FE00017038115924051F6A0911B03AA2331F2F9
:100FF0006091190370911A036115710509F4BECF50
:1010000020911803222309F4B9CFA09365062093F9
:10101000570690E080E030E0E1E0F0E0C82FAF015B
:10102000082E02C0440F551F0A94E2F72417350713
:1010300069F041E0480F01968930910579F74093B6
:1010400060069CCFC12CD12C7601C1CF8093600665
:10105000209121033091220350E040E02115310519
:1010600041F420912F03309130034091310350918E
:101070003203209358063093590640935A065093F2
:101080005B0646015701860E971EA11CB11C80927B
:10109000660690926706A0926806B0926906E09193
:1010A0001C03F0911D03F0936C06E0936B06B0E017
:1010B0000E947B1FDC01CB01880D991DAA1DBB1D61
:1010C00080936D0690936E06A0936F06B0937006A2
:1010D00025E0EE0FFF1F2A95E1F7E150FE4FEF2FBD
:1010E000FF27E6958E0F9F1FA11DB11D80936106FE
:1010F00090936206A0936306B093640680901E03EB
:1011000090901F03B12CA12C8114910441F4809084
:101110002B0390902C03A0902D03B0902E03C81A9F
:10112000D90AEA0AFB0AC80CD91CEA1CFB1C04C039
:10113000F694E794D794C794CA95D2F7C0925C0608
:10114000D0925D06E0925E06F0925F0685EFC816CB
:101150008FE0D806E104F10428F48CE080936A065D
:1011600081E00DCF80E125EFC2162FEFD206E1041A
:10117000F104A0F38091370390913803A0913903D3
:10118000B0913A0380936D0690936E06A0936F061C
:10119000B093700680E2E2CF4F925F926F927F929F
:1011A0008F929F92AF92BF92CF92DF92EF92FF9277
:1011B0000F931F93CF93DF93EC01423051056105EC
:1011C000710590F480E0DF91CF911F910F91FF9016
:1011D000EF90DF90CF90BF90AF909F908F907F90D7
:1011E0006F905F904F90089589859A85AB85BC85F7
:1011F0000196A11DB11D84179507A607B70710F327
:10120000CB88DC88ED88FE888F89803109F042C068
:10121000BB27A72F962F852F480159012A013B0193
:10122000C80ED91EEA1EFB1E809100029091010299
:10123000A0910202B0910302C816D906EA06FB0685
:1012400099F58F898031B9F5B301A2015527662739
:101250007727440F551F455F5C4FFA0191828082CA
:101260008091F20281608093F2028A89823080F05C
:101270008D819E81AF81B8858C0D9D1DAE1DBF1DDA
:101280008093F3029093F402A093F502B093F602D8
:1012900081E099CFDB01CA01E7E0B695A795979564
:1012A0008795EA95D1F7B8CF40E0C701B60105DED2
:1012B0008111C7CF87CFB301A2014F77552766278A
:1012C0007727440F551F440F551F455F5C4FFA01A8
:1012D00080829182A282B382C3CF8F929F92AF927B
:1012E000BF92CF92DF92EF92FF920F931F93CF9313
:1012F000DF93FC0181859285A385B4850196A11DAC
:10130000B11D84179507A607B70770F480E0DF9139
:10131000CF911F910F91FF90EF90DF90CF90BF90F2
:10132000AF909F908F90089583889488A588B68801
:101330008789803189F5BB27A72F962F852FE90153
:101340006A017B018F01BC01CD01680D791D8A1DE9
:101350009B1D8090000290900102A0900202B0902C
:10136000030286169706A806B90601F5F8018789D3
:10137000803109F5DD24EE24FF24F601EE0FFF1F76
:10138000E55FFC4F80819181B0E0A0E08883998384
:10139000AA83BB8381E0BBCFDB01CA01C7E0B6955E
:1013A000A79597958795CA95D1F7C9CF40E085DD78
:1013B0008111DCCFABCFE894C7F8DD24EE24FF2405
:1013C000F601EE0FFF1FEE0FFF1FE55FFC4F808160
:1013D0009181A281B381BF70D9CF4F925F926F92FA
:1013E0007F92AF92BF92CF92DF92EF92FF920F93D4
:1013F0001F93CF93DF9300D01F92CDB7DEB78C0140
:1014000049835A836B837C835901C12CD12C76018B
:10141000412C82E0582E612C712C49815A816B81BC
:101420007C819E012F5F3F4FC80157DF882339F130
:10143000F8018585A301920104C0220F331F441FC8
:10144000551F8A95D2F7DA01C901C80ED91EEA1EC6
:10145000FB1E49815A816B817C818789803111F122
:1014600088EF9FEFAFEFBFE0481759076A077B0788
:10147000A0F2F501C082D182E282F38281E00F9076
:101480000F900F900F90DF91CF911F910F91FF90D0
:10149000EF90DF90CF90BF90AF907F906F905F9074
:1014A0004F90089588EF9FEFA0E0B0E0DDCFCF939D
:1014B000DF93FC012581222321F080E0DF91CF9191
:1014C0000895EC0180916A06803159F582E08583A8
:1014D000178A108E118E128E80916B0690916C0679
:1014E000B0E0A0E025E0880F991FAA1FBB1F2A9536
:1014F000D1F7838B948BA58BB68B83E596E09C8F7D
:101500008B8F81E08C831E821F82188619861A8633
:101510001B861C861D861E861F86188A198A1A8AB3
:10152000CDCF803251F683E0858340916D06509196
:101530006E0660916F0670917006478B508F618FB9
:10154000728F9F012D5E3F4F83E596E046DF81114C
:10155000D4CFB3CF8F929F92AF92BF92CF92DF92B0
:10156000EF92FF920F931F93CF93DF93EC018D8146
:1015700081110EC080E0DF91CF911F910F91FF90FC
:10158000EF90DF90CF90BF90AF909F908F90089595
:101590000B891C892D893E890417150726073707F3
:1015A00048F34A015B01823031F48A869B86AC861F
:1015B000BD8681E0E0CF81149104A104B10449F417
:1015C0001E821F82188619861A861B861C861D8617
:1015D000F0CF0A851B852C853D85EB8DFC8D85859F
:1015E00090E00996B901A8014150510961097109BA
:1015F000082E04C076956795579547950A94D2F7BB
:1016000075016401E1E0CE1AD108E108F10804C0D7
:10161000F694E794D794C7948A95D2F7C416D50662
:10162000E606F70620F0012B022B032B09F58F8924
:10163000988DA98DBA8D8E839F83A887B9878E01D7
:101640000A5F1F4FC114D104E104F10409F4ADCFC6
:101650004E815F816885798598018B8D9C8D3DDEFB
:1016600091E0C91AD108E108F1088111EBCF82CFCE
:10167000C41AD50AE60AF70AE2CF3F924F925F9268
:101680006F927F928F929F92AF92BF92CF92DF9292
:10169000EF92FF920F931F93CF93DF93CDB7DEB7F7
:1016A0002C970FB6F894DEBF0FBECDBF5C01DC01F6
:1016B0005B968D909C905C9716964D905D906D908A
:1016C0007C901997411451046104710409F467C0B6
:1016D000BFEF4B1A5B0A6B0A7B0A312CF401818540
:1016E0009285A385B4859C01AD012F5F3F4F4F4F7D
:1016F0005F4F29873A874B875C87730162011D82A0
:101700001E821F821886F40181859285A385B48587
:101710002D813E814F815885281739074A075B077D
:1017200008F054C089859A85AB85BC858C159D05CC
:10173000AE05BF0550F482E0C82ED12CE12CF12C6F
:1017400092E0492E512C612C712C9E012F5F3F4F4E
:10175000B701A601C401C1DD8823C1F189819A8145
:10176000AB81BC81892B8A2B8B2B09F12601370198
:101770009FEF491A590A690A790A2D813E814F81E2
:1017800058852F5F3F4F4F4F5F4F2D833E834F83D1
:1017900058873FEFC31AD30AE30AF30AB4CFF40120
:1017A00040805180628073803324339497CFC41477
:1017B000D504E604F70409F70FEF1FEF2FEF3FE022
:1017C000B701A601C401E8DC811119C080E02C96A4
:1017D0000FB6F894DEBF0FBECDBFDF91CF911F9142
:1017E0000F91FF90EF90DF90CF90BF90AF909F90C0
:1017F0008F907F906F905F904F903F900895D501AC
:1018000016964D915D916D917C91199741155105F9
:101810006105710531F097018601C401BDDC8823A3
:10182000A9F2D5011696CD92DD92ED92FC92199710
:10183000332051F0D701C6010196A11DB11DF4015D
:1018400080839183A283B383F5018789908DA18DD5
:10185000B28D892B8A2B8B2B39F48481C78AD08E49
:10186000E18EF28E80688483F501848180628483B6
:1018700081E0ADCF2F923F924F925F926F927F9215
:101880008F929F92AF92BF92CF92DF92EF92FF9290
:101890000F931F93CF93DF9300D0CDB7DEB7FC013A
:1018A0008581811118C08FEF9FEF0F900F900F90DF
:1018B000DF91CF911F910F91FF90EF90DF90CF902C
:1018C000BF90AF909F908F907F906F905F904F9060
:1018D0003F902F900895848180FFE5CF43895489FC
:1018E0006589768982859385A485B585312C212CDF
:1018F000481759076A077B0719F022242394312CD3
:101900006F012101CE0101963C01DF011696BB83D8
:10191000AA834114510409F4C2C0F60142855385DB
:10192000648575854A01F1E09F22D6015B968D9111
:101930009C915C978A019B01E9E036952795179564
:101940000795EA95D1F71596EC91E230E1F5FC01A7
:10195000628D738D848D958D600F711F821F931F13
:10196000A12C22E0B22EA818B9084A145B0408F48E
:101970005201F601248126FD04C0A114F2E0BF0645
:1019800071F4009100021091010220910202309145
:101990000302061717072807390709F05CC040E063
:1019A0008CDA882309F47FCFC401855F9C4FD30173
:1019B0009C012A0D3B1DFC012E173F0709F46AC04C
:1019C00041914D93F9CFDC011496BC90BA94B022AA
:1019D0008114910479F4B1100DC0452B462B472B8F
:1019E00069F5F6018789908DA18DB28D86839783E5
:1019F000A087B187D6015B96ED91FC915C97169616
:101A00006D917D918D919C91199762507109810919
:101A10009109258504C0660F771F881F991F2A9595
:101A2000D2F70685178520893189600F711F821FC3
:101A3000931F6B0D711D811D911D92CFD6011696BE
:101A40004D915D916D917C9119972A813B8145DC87
:101A50008111D0CF28CF730185019401AB01BC0166
:101A600080910B0590910C05E2D8882309F41BCFD7
:101A70006A0C7B1CF60182859385A485B5858A0D49
:101A80009B1DA11DB11D82879387A487B5874A1826
:101A90005B083FCF281B390B620E731EEBCF2A94D5
:101AA000232809F000CF898190E0FFCEFC01818DD1
:101AB000928D009709F0DECE8FEF9FEF08950F9380
:101AC0001F93CF93DF93EC01898D9A8D10E000E096
:101AD000009789F0CFDE8C010F3F100761F0898DF0
:101AE0009A8DFC0142855385648575854150510965
:101AF000610971092FDDC801DF91CF911F910F910D
:101B000008951F93CF93DF93FC0125812223C1F118
:101B1000162FEC01848187FF29C06685778580892F
:101B2000918941E0CAD9882359F1EA8980E2E89F86
:101B3000F0011124E55FFC4F309711F18D81823067
:101B400040F48B899C89AD89BE89848F958FA68F3F
:101B5000B78F8F89988D938F828F8F89988DA98D5C
:101B6000BA8DB58BA48B8C818F778C83111103C0B8
:101B70008C818F7E8C83812FDF91CF911F9174C9CF
:101B800080E0DF91CF911F910895FC01818D928DAE
:101B9000009711F061E0B5CF0895FF920F931F9366
:101BA000CF93DF93EC018D81813041F090E080E0B4
:101BB000DF91CF911F910F91FF9008958C8181FF4C
:101BC000F5CF82FD1AC000910B0510910C05C801DC
:101BD0000E94AE050E949105F82EC8010E94800562
:101BE0008FEFF812E3CF8C8185FF19C060E0CE0142
:101BF00088DF8C818F7D8C83D9CF4B895C896D89FF
:101C00007E898A859B85AC85BD8584179507A60747
:101C1000B707C9F2CE019EDC8111D5CFC7CF409165
:101C2000F3025091F4026091F5027091F602452B97
:101C3000462B472B19F080E0F4D8B8CF80618C8315
:101C40002A853B85317080E092E0821B930BB0CFF8
:101C5000CF93DF93EC0161E054DF882311F01D8204
:101C600081E0DF91CF9108952F923F924F925F9242
:101C70006F927F928F929F92AF92BF92CF92DF929C
:101C8000EF92FF920F931F93CF93DF9300D01F9299
:101C90001F92CDB7DEB77C015B01342E5D83DC0182
:101CA00015968C911597813009F0CCC014962C9024
:101CB00021FEC8C022FCB3C0C32CDD8022947FE08B
:101CC00027222094B22DB1702B2ED7011A964D9158
:101CD0005D916D917C911D97C114D10409F425C1CA
:101CE0005B968D919C915C97FC0174807A948A013B
:101CF0009B0169E036952795179507956A95D1F769
:101D000070228A01117071101FC001151105E1F4D4
:101D100016964D915D916D917C91199741155105E4
:101D20006105710509F097C057968D919D910D90B1
:101D3000BC91A02D0097A105B10509F0ADC0C70168
:101D40009CDC882309F47EC080E092E0801B910B2C
:101D500046018C159D0508F44C01D7015B964D9109
:101D60005C915C9716968D919D910D90BC91A02DE4
:101D70000297A109B109FA01258504C0880F991FAE
:101D8000AA1FBB1F2A95D2F746855785608971899E
:101D9000840F951FA61FB71F9C01AD01270D311D94
:101DA000411D511D29013A01811432E0930609F0C9
:101DB00079C08091000290910102A0910202B0913D
:101DC000030284159505A605B70559F48FEF9FEF1B
:101DD000DC018093000290930102A0930202B09371
:101DE0000302022D9501B301A20180910B05909190
:101DF0000C050E94AF06882329F19EEFB91AC81876
:101E0000D908F70182859385A485B585880D991D2C
:101E1000A11DB11D82879387A487B58756CFF7018F
:101E2000438954896589768982859385A485B5859A
:101E3000481759076A077B0709F43ECFC7018ADBB9
:101E400081113ACF81E090E0D70113969C938E9355
:101E5000129780E006C09E012F5F3F4F3EDA81114E
:101E600002C090E079C089819A81AB81BC81F70181
:101E7000238D348DF901278948EF5FEF60E070E032
:101E8000203121F048EF5FEF6FEF7FE08417950777
:101E9000A607B70708F053CFF70186839783A0877B
:101EA000B18752CF0115110599F5D7011A964D91B9
:101EB0005D916D917C911D9753968D919D910D90A3
:101EC000BC91A02D481759076A077B0708F181E0EC
:101ED0000E943407882309F4B5CF40920002509243
:101EE000010260920202709203028091F20281600C
:101EF0008093F202C801855F9C4FD5019C01280D9B
:101F0000391DFC012E173F0759F04D914193FACF2F
:101F100041E0C301B2010E945D078111EBCF92CF76
:101F2000281B390BA20EB31E6ACFF701838994894F
:101F3000A589B68984179507A607B70738F4848161
:101F4000438B548B658B768B80688483F701848107
:101F500083FD1AC0832D9D810F900F900F900F90DD
:101F60000F90DF91CF911F910F91FF90EF90DF9035
:101F7000CF90BF90AF909F908F907F906F905F9029
:101F80004F903F902F90089561E0C701BADD8823FC
:101F900009F458CFDFCFCF93DF93EC01E98DFA8DB1
:101FA000309749F481E090E09B838A8390E080E061
:101FB000DF91CF91089513821282898D9A8D54DE1C
:101FC000E98DFA8D22813381232B61F7F1CFCF93F5
:101FD000DF931F92CDB7DEB7698341E050E0BE01C9
:101FE0006F5F7F4F41DE0F90DF91CF910895CF93C8
:101FF000DF93FB0122813381DC0113963C932E9306
:102000001297448155816681778114964D935D9333
:102010006D937C93179740855185628573851896DB
:102020004D935D936D937C931B971C96EF012C96BB
:102030009C01275E3F4F49914D93A217B307D9F7F3
:10204000218D328DFC01328F218FDF91CF91089548
:10205000CF92DF92EF92FF921F93CF93DF93EC0129
:1020600080E2689FF0011124E55FFC4F9385917138
:1020700061F0842F827449F080E0DF91CF911F914D
:10208000FF90EF90DF90CF900895142F6A8B80918E
:10209000000290910102A0910202B09103028E878A
:1020A0009F87A88BB98BC488D588F12CE12C760149
:1020B000DD24CC24CF8AD88EE98EFA8E828D938D42
:1020C000B0E0A0E0AC01BD014C295D296E297F295B
:1020D0004F8B588F698F7A8F83858871B1F4848D87
:1020E000958DA68DB78D8B8B9C8BAD8BBE8B81E038
:1020F0008D831F701C831E821F82188619861A8684
:102100001B861C861D8681E0B8CF803109F0B4CFD4
:102110009E012D5E3F4F8B8D9C8D5FD9882309F4E6
:10212000ABCF84E0E5CFFB0101900020E9F73197C8
:10213000AF01461B570BDC01ED91FC910280F3814E
:10214000E02D19948F929F92AF92BF92EF92FF92DF
:102150000F931F93CF93DF93CDB7DEB7A1970FB641
:10216000F894DEBF0FBECDBF7C01FA01CB0119A2EE
:10217000223008F42AE08E010F5D1F4F822E912C31
:10218000B12CA12CBF01A50194010E942D20F901C1
:10219000CA016A3004F5605DD8016E938D01232B6E
:1021A000242B252B79F790E080E0109719F0BD01E2
:1021B000C701B9DFA1960FB6F894DEBF0FBECDBF41
:1021C000DF91CF911F910F91FF90EF90BF90AF9053
:1021D0009F908F900895695CDFCFCF92DF92EF924E
:1021E000FF920F931F93CF93DF93EC016A017B0162
:1021F000E881F9810190F081E02D6DE219958C0163
:1022000044275527BA014C195D096E097F092AE058
:10221000CE0198DF800F911FDF91CF911F910F9119
:10222000FF90EF90DF90CF900895AB01770F660B92
:10223000770B77FDD2CF2AE085CF8F929F92AF9216
:10224000BF92CF92DF92EF92FF920F931F93CF93A3
:10225000DF93EC016A017B01AB019601CB01B60172
:102260000E94292062E672E0811126C046015701D2
:10227000E894B7F82FEF3FEF4FE75FE7C501B401F0
:102280000E94292081110CC02FEF3FEF4FE75FE73D
:10229000C501B4010E945F1E66E672E0181664F084
:1022A0002FEF3FEF4FE75FE4C701B6010E94252003
:1022B000181684F46AE672E0CE01DF91CF911F9187
:1022C0000F91FF90EF90DF90CF90BF90AF909F90D5
:1022D0008F9029CF2FEF3FEF4FE75FECC701B6019B
:1022E0000E945F1E87FDE6CF20E030E0A901C70114
:1022F000B6010E945F1E10E000E087FF09C06DE29A
:10230000CE010E9464058C01F7FAF094F7F8F0947E
:102310002AE037ED43EA5BE3C701B6010E94951F4F
:102320004B015C010E94F91F6B017C010E94631E3E
:102330009B01AC01C501B4010E94941F4B015C01DB
:102340002AE0B701A601CE01FDDE080F191FE881C2
:10235000F9810190F081E02D6EE2CE011995080F10
:10236000191F20E030E040E251E4C501B4010E94B1
:10237000C41E4B015C010E94F91F6B01F12CE12C82
:102380002AE0B701A601CE01DDDE080F191FC70143
:10239000B6010E94631E9B01AC01C501B4010E94FD
:1023A000941F20E030E040E251E40E94C41E0E94ED
:1023B000F91FAB0170E060E02AE0CE01C3DE800FC0
:1023C000911FDF91CF911F910F91FF90EF90DF90C0
:1023D000CF90BF90AF909F908F9008950F931F93D1
:1023E000CF93DF93EC019FDE8C016EE672E0CE01AD
:1023F0009ADE800F911FDF91CF911F910F91089569
:1024000092CEFC0180819181009711F00C940521FE
:102410000895CF93DF93EC018EE292E09983888355
:10242000CE01C896EEDFCE01C296DF91CF91E9CF03
:10243000CF93DF93EC01EDDFCE01DF91CF910C94D0
:102440000521CF93DF93EC01898D9A8D009739F0A8
:10245000FFDB898D9A8D0E9405211A8E198EDF91DE
:10246000CF9108950C9405210F931F93CF93DF9381
:102470008C01EB01FC01808191810097E1F0688182
:10248000798161157105A9F0428153812C813D81CB
:102490004217530770F00E948B228C819D81F801B6
:1024A000958384831D821C82DF91CF911F910F91B0
:1024B00008950E94052188819981F8019183808384
:1024C0008A819B81938382838C819D819583848380
:1024D000198218821B821A82E5CFEF92FF920F9326
:1024E0001F93CF93DF93EC017B018A01888199814F
:1024F000009729F02A813B812417350788F4B80119
:102500006F5F7F4F0E948E21009791F0998388839F
:102510001B830A832C813D81232B11F4FC01108243
:102520001D830C83B701888199810E948B220CC086
:1025300088819981009711F00E94052119821882E3
:102540001D821C821B821A82CE01DF91CF911F91C6
:102550000F91FF90EF900895FC0111821082138279
:1025600012821582148250E040E064E772E0B5CF39
:10257000EF92FF920F931F93CF93DF93CDB7DEB708
:10258000A2970FB6F894DEBF0FBECDBF8C01CB0172
:10259000BA01F8011182108213821282158214820C
:1025A00030E0AE014F5F5F4F7A010E940E1EF701CF
:1025B00001900020E9F73197AF014E195F09B7018B
:1025C000C8018BDFA2960FB6F894DEBF0FBECDBF59
:1025D000DF91CF911F910F91FF90EF900895EF92AF
:1025E000FF920F931F93CF93DF93EC017B018A013E
:1025F0001B821A8288EE93E0A0E0B0E08C839D837A
:10260000AE83BF8384E592E0998388838DE190E077
:102610000E9469209A8F898F009779F02DE1F70148
:10262000DC0101900D922A95E1F74CE050E0B801F1
:10263000CE010C960E949222188EDF91CF911F91AD
:102640000F91FF90EF9008953F924F925F926F929B
:102650007F928F929F92AF92BF92CF92DF92EF9232
:10266000FF920F931F93CF93DF9300D000D000D041
:102670001F921F92CDB7DEB77C01FE013196CE01CD
:102680000C966F0130E23193E817F907E1F7DA01B0
:1026900030E087E09D91B92E992309F43CC09E3229
:1026A000F1F48A30C9F480E02B960FB6F894DEBFBF
:1026B0000FBECDBFDF91CF911F910F91FF90EF9093
:1026C000DF90CF90BF90AF909F908F907F906F9052
:1026D0005F904F903F90089538E08AE0DBCFEAE7C3
:1026E000F3E04491442321F031969413FACFDBCFE9
:1026F0008317C8F24FED490F4E35A8F64FE9490F41
:102700004A3118F440EEB42EB90EF601E30FF11D74
:10271000B0823F5FBFCF8981803229F2322E8B0198
:10272000DB015B968D919C915C97F701948F838F71
:1027300016961D921D921D921C921997FB011286EE
:10274000138614861586F80182859385A485B58540
:10275000438954896589768984179507A607B70741
:1027600008F04CC025E0B695A795979587952A95D2
:10277000D1F7F82FFF70AF2ED80115968C918230CB
:1027800008F491CFC80176D897FD8DCFF8018285E6
:102790009385A485B5854F96A11DB11D828793872A
:1027A000A487B587F0E2AF9EB0011124655F7C4F2E
:1027B0006115710509F477CFDB018C91882341F015
:1027C000853E09F062C0BB2029F0BB24B394BBCF87
:1027D000B1100EC0F701A28A80910002909101020F
:1027E000A0910202B091030286879787A08BB18BDC
:1027F000DB018C918111E9CFBB24B394832D8271CD
:10280000823109F050CFBB2009F44CC0F701668536
:1028100077858089918941E00E945D07882309F4CA
:1028200042CFD70152968C91B0E28B9FC001112408
:10283000855F9C4F009709F436CFFC013A9626E15C
:10284000DF011D922A95E9F72BE0F601DC010190EA
:102850000D922A95E1F721E238E2FC01318B208BC1
:1028600040E058E057874687338B228B318F208F8B
:10287000578B468B81E00E943407882309F413CFDD
:10288000432DD70152966C910AC04BE050E0C6012F
:102890000E946A22892B09F056CF432D6A2DC70169
:1028A000D7DB02CFF8018581823009F4FCCEC80164
:1028B0000E943D0B882309F4F6CED8015B96ED917A
:1028C000FC915C9716968D909D90AD90BC90199759
:1028D000B2E08B1A9108A108B108858504C0880C64
:1028E000991CAA1CBB1C8A95D2F786859785A0895E
:1028F000B189880E991EAA1EBB1E84812401350150
:10290000480E511C611C711C84149504A604B70464
:1029100009F1E1E04E1A51086108710881E00E9456
:102920003407882309F4BFCEEBE0F3E011928BE08B
:1029300095E08E179F07D1F7409200025092010256
:1029400060920202709203028091F2028160809391
:10295000F202DACFD8015B96ED91FC91258580E0FB
:1029600092E0A0E0B0E004C0880F991FAA1FBB1F2F
:102970002A95D2F7F8014389548965897689840FAD
:10298000951FA61FB71F838B948BA58BB68BD70182
:1029900052961C928BE093E050CF2F923F924F9231
:1029A0005F926F927F928F929F92AF92BF92CF92DF
:1029B000DF92EF92FF920F931F93CF93DF93CDB7E8
:1029C000DEB7C656D1090FB6F894DEBF0FBECDBF35
:1029D0006C015B0119A218A288E492E09F8F8E8F90
:1029E0001BA21C821B829A8389831E824E018EE168
:1029F000880E911CC4010E94570A75018E010F5F59
:102A00001F4F240118016FE270E0C7010E9480226D
:102A1000009709F459C0F70120812F3271F4FFEFBC
:102A2000EF1AFF0A902F812F8201492E582E942DE4
:102A3000852D2801092F182FE6CF8E198D3008F02B
:102A40008CE0682E712CA301B701CE01885A9F4FEC
:102A50000E949222E8E5F0E0EC0FFD1FE60DF71D65
:102A60001082C801F5D8F80185818823F9F01EAEDF
:102A70001DAE88E492E09CAF8BAF21961FAE2197EC
:102A8000A796EEADFFADA797AE0EBF1EF5018081F4
:102A9000811127C0BE01655C7F4FC1010E94E40423
:102AA00041E752E0B101C6019ADD39C021E0AE0133
:102AB000485A5F4FB201C801C7DD8823C1F2E60C56
:102AC000F71CC201C5D8B3CFC7018A199B09A796C5
:102AD0009FAF8EAFA797B201CE01CB960E94E404C0
:102AE000CFCF19A218A288E492E09F8F8E8F1BA2ED
:102AF00021968FAD219781112DC0F601138212828C
:102B000088EE93E0A0E0B0E084839583A683B7834A
:102B100084E592E091838083128E118E1486C60123
:102B2000CA59DF4F0FB6F894DEBF0FBECDBFDF919D
:102B3000CF911F910F91FF90EF90DF90CF90BF90BA
:102B4000AF909F908F907F906F905F904F903F904D
:102B50002F90089527E1A501BE01655C7F4FC40158
:102B600073DD882351F2CE01CB9672D849A95AA9B8
:102B70006BA97CA9C4010E94AA0AB401C1010E94E8
:102B8000E404A5018FCFAF92BF92CF92DF92EF9274
:102B9000FF920F931F93CF93DF93CDB7DEB7A2972A
:102BA0000FB6F894DEBF0FBECDBF6C01E62E1F8EB0
:102BB00018A219A21AA280910C0290910D029A8378
:102BC0008983FE0133968CE1DF011D928A95E9F736
:102BD000F601828193810E947B02F9E1EF9E7001F0
:102BE0001124C70180519F4F7C0102E3002309F4A7
:102BF0004AC0D60112968D919C91DC01ED91FC9119
:102C00000084F185E02D1995892B81F310E080E691
:102C1000A82E8AEEB82EF60182819381DC01ED9117
:102C2000FC910284F385E02D19958F3F19F08D30CA
:102C300009F03EC0B1E0AB1AB10869F7E1E0F0E09D
:102C4000EC0FFD1FE10FF11D108263E772E0CE0172
:102C50000196BAD7B701AFD7892B09F04FC063E708
:102C600072E090E080E0B0D7FC0120812F3491F534
:102C700081818E3451F581E090E0A0E0B0E08F8F4B
:102C800098A3A9A3BAA36F8D78A189A19AA1A296AE
:102C90000FB6F894DEBF0FBECDBFDF91CF911F916D
:102CA0000F91FF90EF90DF90CF90BF90AF9008957D
:102CB0008A3021F21E3128F5E1E0F0E0EC0FFD1F33
:102CC000E10FF11D80831F5FA6CF1F8E18A219A2EE
:102CD0001AA2D9CF9E01215E3F4F3F932F9325E744
:102CE00032E03F932F939F938F930E94A1220F90E6
:102CF0000F900F900F900F900F90C5CF0150198239
:102D000075CF60E070E0CB01C2CF1F920F920FB67B
:102D10000F9211242F933F938F939F93AF93BF9361
:102D20008091030390910403A0910503B0910603E1
:102D30003091020323E0230F2D3758F50196A11D92
:102D4000B11D209302038093030390930403A09387
:102D50000503B09306038091070390910803A091A7
:102D60000903B0910A030196A11DB11D80930703C9
:102D700090930803A0930903B0930A03BF91AF9106
:102D80009F918F913F912F910F900FBE0F901F90A9
:102D9000189526E8230F0296A11DB11DD2CF1F92D0
:102DA0000F920FB60F9211240BB60F922F933F93F1
:102DB0004F935F936F937F938F939F93AF93BF9343
:102DC000EF93FF938DE095E00E942B04FF91EF912C
:102DD000BF91AF919F918F917F916F915F914F9133
:102DE0003F912F910F900BBE0F900FBE0F901F9031
:102DF00018951F920F920FB60F9211240BB60F92D7
:102E00002F938F939F93EF93FF93E0911D05F09184
:102E10001E058081E0912305F091240582FD1DC0EF
:102E20009081809126058F5F8F73209127058217EF
:102E300041F0E0912605F0E0E35FFA4F958F809333
:102E40002605FF91EF919F918F912F910F900BBECF
:102E50000F900FBE0F901F9018958081F2CF1F9298
:102E60000F920FB60F9211240BB60F922F933F9330
:102E70004F935F936F937F938F939F93AF93BF9382
:102E8000EF93FF938AEA95E00E942B04FF91EF9164
:102E9000BF91AF919F918F917F916F915F914F9172
:102EA0003F912F910F900BBE0F900FBE0F901F9070
:102EB00018951F920F920FB60F9211240BB60F9216
:102EC0002F938F939F93EF93FF93E091BA05F09127
:102ED000BB058081E091C005F091C10582FD1DC058
:102EE00090818091C3058F5F8F732091C4058217F5
:102EF00041F0E091C305F0E0E655FA4F958F8093DD
:102F0000C305FF91EF919F918F912F910F900BBE71
:102F10000F900FBE0F901F9018958081F2CFEDE0BB
:102F2000F5E01382128288EE93E0A0E0B0E08483A3
:102F30009583A683B78326E332E0318320834DEC6B
:102F400050E0558744874CEC50E05787468748EC63
:102F500050E0518B408B49EC50E0538B428B4AEC54
:102F600050E0558B448B4EEC50E0578B468B118EC6
:102F7000128E138E148EEAEAF5E013821282848395
:102F80009583A683B7833183208325EC30E0358792
:102F9000248724EC30E03787268720EC30E0318B23
:102FA000208B21EC30E0338B228B22EC30E0358B10
:102FB000248B26EC30E0378B268B118E128E138EED
:102FC000148EE7E4F6E0158216821186138642E03D
:102FD00050E060E070E0448755876687778713A2EA
:102FE00015A614A628E432E033A722A717A6E0E925
:102FF000F6E020E520831182E2E9F6E013821282F6
:1030000084839583A683B78384E592E0918380834C
:10301000128E118E14860895CF93DF93CDB7DEB74D
:103020006D970FB6F894DEBF0FBECDBF789484B510
:10303000826084BD84B5816084BD85B5826085BDB4
:1030400085B5816085BD80916E00816080936E0042
:103050001092810080918100826080938100809134
:1030600081008160809381008091800081608093E5
:1030700080008091B10084608093B1008091B000A5
:1030800081608093B0008091910082608093910074
:103090008091910081608093910080919000816087
:1030A000809390008091A10082608093A100809124
:1030B000A10081608093A1008091A0008160809335
:1030C000A0008091210182608093210180912101E3
:1030D0008160809321018091200181608093200193
:1030E00080917A00846080937A0080917A00826077
:1030F00080937A0080917A00816080937A00809139
:103100007A00806880937A001092C1008DE00E945E
:10311000A2028AEA95E00E947B028DE095E00E947F
:103120007B0280917606882321F081E796E00E9459
:10313000280E109252061092500610924D061092D0
:103140004C0681E380934B060E94A2038B01809181
:103150004B060E94A20261E080914B060E94C102D0
:10316000FFB6F8948091F702811124C0E9E3F4E0FE
:103170008491EFE7F4E09491E82FF0E0EE0FFF1F69
:10318000E651FC4FA591B491EC91E92321F461E063
:1031900085E30E94C10285E30E94A2028CB5806192
:1031A0008CBD8CB580648CBD84E30E94A20283E355
:1031B0000E94A2028091F7028F5F8093F702FFBE08
:1031C00082E58093900610929106809190069091EE
:1031D00091060E94AB052AE0F22E8FEF0E948A052D
:1031E000FA94F110FACF87E496E00E94AE0520E051
:1031F00030E0A90160E087E496E00E94C205F82E65
:103200008093510681E0F81609F4DDC20E94A20302
:10321000601B710B613D774050F381E080934C0659
:1032200087E496E00E948005FE0131962F010E94FE
:10323000A2032091FE023091FF023B01621A730A41
:103240000E94A2036093FE027093FF02809300032A
:10325000909301038AEA95E00E940D04892BC1F046
:103260001092FA021092FB021092FC021092FD02E0
:10327000F1E0F093050261E08DE00E94C1028AEA6C
:1032800095E00E94EB03682F8DE095E00E944D04CD
:1032900080910502882309F43EC08091FA02909142
:1032A000FB02A091FC02B091FD026301072C000C0F
:1032B000EE08FF08C80ED91EEA1EFB1EC092FA02D5
:1032C000D092FB02E092FC02F092FD028DE095E0CC
:1032D0000E940D04892B49F08DE095E00E94EB03DC
:1032E000682F8AEA95E00E944D04809104028111C2
:1032F00005C381E3C81685E7D806E104F10408F4A4
:1033000059C21092050260E08DE00E94C1028091D6
:10331000050281114FC20091F8021091F90262E09A
:10332000C80131DCD2D42FE632E143E85AE32CD590
:10333000D80114966D937D938D939C93179766E0B7
:10334000C80121DCC2D42FE632E143E85AE31CD5A0
:10335000F801608771878287938767E0C80113DC73
:10336000B4D4D8011C966D937D938D939C931F9735
:1033700064E0C80108DCA9D42FE632E143E85AE34F
:1033800003D5F801608B718B828B938B68E0C80149
:10339000FADB9BD42FE632E143E85AE3F5D4D801B7
:1033A00054966D937D938D939C93579769E0C801D4
:1033B000EADB21E0672B682B692B09F420E0F80198
:1033C000208F6AE0C801DFDB21E0672B682B692BC7
:1033D00009F420E0D80159962C936CE0C801D3DBA6
:1033E00074D42AE037ED43E25CE3CED4F801628F77
:1033F000738F848F958F6DE0C801C5DB66D42AE09A
:1034000037ED43E25CE3C0D4D8015E966D937D93C3
:103410008D939C9391976EE0C801B5DB56D4F8016B
:1034200062A373A384A395A36FE0C801ACDB4DD462
:103430002AE037ED43E25CE3A7D4D80196966D937A
:103440007D938D939C93999760E1C8019CDB3DD45B
:10345000F80162A773A784A795A761E1C80193DB70
:10346000D8019F967C936E939E9762E1C8018BDB97
:10347000F80171AB60AB63E1C80185DBAB01BC0156
:103480002AE0C20175D8C801C2964816590619F03B
:10349000B2010E943412C2010E94011264E1C8010B
:1034A00072DBAB01BC0120E1C20162D8C801C89641
:1034B0004816590619F0B2010E943412C2010E9446
:1034C000011265E1C8015FDBD801DF967C936E9342
:1034D000DE972090F8023090F902F101E05CFF4F96
:1034E000FD8FEC8F8081882309F456C14101FCE5F2
:1034F0008F0E911CC301770CAA0BBB0B9C01AD0175
:1035000060E070E080E090E0D401AC901196BC9057
:1035100011971296CC9012971396DC9013971496ED
:10352000EC9014971596FC90159716960C9116979B
:1035300017961C911797BBD52C9311963C93119716
:1035400012964C93129713965C93139714966C9360
:10355000149715967C93159716968C931697179635
:103560009C93F101EC59FF4FA080B180C280D380C1
:10357000E480F58006811781A3D509F008F40CC119
:1035800066EA72E0C20109DA81010F5B1F4FB201E6
:10359000C8010E94F70FF401108211821282138277
:1035A0001482158216821782C8010E945405892B45
:1035B00009F4F7C26CEB72E08AEA95E00E94EE1122
:1035C000D10114964D915D916D917C911797C80131
:1035D0000E941D1162ED72E0C8010E940012F1010B
:1035E0004085518562857385C8010E941D1162ED79
:1035F00072E0C8010E940012D1011C964D915D91AC
:103600006D917C911F97C8010E941D1162ED72E0BF
:10361000C8010E940012F1014089518962897389B1
:10362000C8010E941D1162ED72E0C8010E940012E3
:10363000D10154964D915D916D917C915797C80140
:103640000E941D1162ED72E0C8010E940012F1019A
:10365000608D70E0C8010E94151162ED72E0C80132
:103660000E940012D10159966C9170E0C8010E942D
:10367000151162ED72E0C8010E940012F101428D45
:10368000538D648D758DC8010E941D1162ED72E02D
:10369000C8010E940012D1015E964D915D916D911D
:1036A0007C919197C8010E941D1162ED72E0C801E2
:1036B0000E940012F10142A153A164A175A1C801A9
:1036C0000E941D1162ED72E0C8010E940012D1013A
:1036D00096964D915D916D917C919997C8010E944C
:1036E0001D1162ED72E0C8010E940012F10142A5B5
:1036F00053A564A575A5C8010E941D1162ED72E075
:10370000C8010E940012D1019E966D917C91C80162
:103710000E94151162ED72E0C8010E940012F101D1
:1037200060A971A9C8010E94151162ED72E0C8017B
:103730000E940012D101D6964D915C91D797D296F6
:103740006D917C91C8010E94CB0F62ED72E0C801BF
:103750000E940012F10144AD55AD60AD71ADC801DC
:103760000E94CB0F62ED72E0C8010E940012D101ED
:10377000DE964D915C91052E000C660B770B77FF62
:103780000BC2C8010E94ED106EE672E0C8010E94F3
:103790009310C8010E94211261E08DE00E94C102D5
:1037A00064E670E080E090E00E94720360E08DE0EB
:1037B0000E94C10261E070E080E090E00E9472032C
:1037C0000E94B80434CD2AEA31E040E050E068E0DD
:1037D00087E496E00E94C20582FF2AC0F09252065A
:1037E00080915206C12CD12C7601823029F4C12C53
:1037F000D12CE12C80E4F82E20E030E0A90167E331
:1038000087E496E00E94C205A701960169E287E479
:1038100096E00E94C205809351068823D1F00E9451
:10382000A203601B710B613D774030F388E0F6CC5A
:1038300094E0F92E0E94910580935106FA94F110BC
:10384000F9CF8A3A11F082E0E9CC82E08093520607
:10385000C7CF809152068230D1F420E030E0A90138
:103860006AE387E496E00E94C205882311F086E0AF
:10387000D5CC0E949105807C803C19F483E0809334
:1038800052060E9491050E9491050E94910587E4CD
:1038900096E00E94800580E5809390061092910644
:1038A00081E00E94A507882311F181E796E00E943C
:1038B000570A882309F4B8CC69E772E0CE01019673
:1038C0006CD8BE016F5F7F4F82E996E00E94F70FD0
:1038D00082E996E00E9421120E94A2036093FE02F8
:1038E0007093FF0280930003909301039DCC80E0CE
:1038F0000E94A507882309F497CCD7CF91E3C91676
:1039000095E7D906E104F10408F454CF10920502BA
:103910001092040260E08DE00E94C1028CE690E00B
:10392000D8D38C018DE095E0D80113969C938E93AB
:103930001297EEE2F2E0ED93FC934801F2E38F0E72
:10394000911CC4010E94AC12580188E3A80EB11C5E
:10395000C5010E94AC12780191E4E90EF11CD70177
:1039600013961C921E92129788EE93E0A0E0B0E0AE
:10397000F70184839583A683B78384E592E09183DE
:103980008083128E118E148665E872E08AEA95E0D3
:103990000E940012D80112968D919C910E947B0288
:1039A0006CED75E080E090E00E947203F801828186
:1039B0009381DC01ED91FC910084F185E02D199556
:1039C00061EA72E0892BC9F1F80182819381DC01FF
:1039D000ED91FC910680F781E02D1995F801C280E8
:1039E000D380D601ED91FC910680F781E02DC601D0
:1039F0001995D6015296ED91FC91539780818F7E57
:103A000080835296ED91FC9153978081877F8083CC
:103A10005296ED91FC91539780818F7780835296D7
:103A2000ED91FC91539780818F7D80835A968C9184
:103A30005A9759968C936EE972E08AEA95E00E9453
:103A4000EE11F801148215821682178210861186F3
:103A5000128613861486158616861786108A118A92
:103A6000128A138A148A158A168A178A108E118E62
:103A7000128E138E148E158E168E178E10A211A212
:103A800012A213A214A215A216A217A210A611A682
:103A900012A613A614A615A617A616A611AA10AA52
:103AA000C2010E94AC12B201C4010E943412C201D0
:103AB0000E940112C2010E94AC12B201C5010E9413
:103AC0003412C2010E940112F80117AE16AE58015D
:103AD000F0E4AF0EB11CE1E0D501EC936801F4E62F
:103AE000CF0ED11CE0E6D601EC93FAEE1196FC93D2
:103AF00011978FEF12968C93129713968C931397BE
:103B000014968C93149715968C93159716968C9300
:103B1000169717968C93F801E45AFF4F1082118282
:103B200012821382148215821682178266EA72E06C
:103B3000C2010E94CD14B201C7010E94F70FC70154
:103B40000E945405892B41F06FEA72E0C7010E9480
:103B5000EE11C7010E9421121093F9020093F8029E
:103B6000E1E0D501EC93E0E6D601EC93FAEE119694
:103B7000FC93119712961C92129713961C9213970E
:103B800014961C92149715961C92159716961C92D3
:103B9000169717961C92BBCB2AE0C8010E94A21070
:103BA000F3CDEC8DFD8D108264ED72E08AEA95E034
:103BB0000E94EE11F1CDFB01DC018D910590801981
:103BC0000110D9F3990B08954DEA56E000C0FA01AF
:103BD000A191B081009719F41097E1F0CD01DC01BB
:103BE000CD010D90002011F4C00113C0FB01219103
:103BF000222319F02015D9F7F3CFFB0121912015CD
:103C000019F41E92119606C02223C1F70D900020D0
:103C1000A1F7D001FA01A193B083089525323105AF
:103C200018F4223008F004C0FA011082CA01089585
:103C3000BB272A3051F4992342F4BDE29095809538
:103C4000709561957F4F8F4F9F4F01C0BB27FA0141
:103C5000A62F6217710581059105330B30FB66F0C5
:103C6000AA27660F771F881F991FAA1FA21710F097
:103C7000A21B63953850A9F7A05DAA3308F0A95D8F
:103C8000A19336F7B111B1931082CA0108C0911106
:103C9000DEC0803219F089508550D0F70895DC01DC
:103CA000FC01672F71917723E1F7329704C07C9173
:103CB0006D9370836291AE17BF07C8F3089540D02B
:103CC00008F481E00895E89409C097FB3EF49095CC
:103CD0008095709561957F4F8F4F9F4F9923A9F0E5
:103CE000F92F96E9BB279395F69587957795679574
:103CF000B795F111F8CFFAF4BB0F11F460FF1BC0B8
:103D00006F5F7F4F8F4F9F4F16C0882311F096E94A
:103D100011C0772321F09EE8872F762F05C06623F8
:103D200071F096E8862F70E060E02AF09A95660FB1
:103D3000771F881FDAF7880F9695879597F908956A
:103D4000990F0008550FAA0BE0E8FEEF16161706AC
:103D5000E807F907C0F012161306E407F50798F014
:103D6000621B730B840B950B39F40A2661F0232B2D
:103D7000242B252B21F408950A2609F4A140A695A9
:103D80008FEF811D811D08950BD07BC06CD028F072
:103D900071D018F0952309F05DC062C01124A5C050
:103DA00081D0A0F3959FD1F3950F50E0551F629FEE
:103DB000F001729FBB27F00DB11D639FAA27F00D84
:103DC000B11DAA1F649F6627B00DA11D661F829FAB
:103DD0002227B00DA11D621F739FB00DA11D621F90
:103DE000839FA00D611D221F749F3327A00D611DAD
:103DF000231F849F600D211D822F762F6A2F11248F
:103E00009F5750408AF0E1F088234AF0EE0FFF1FE1
:103E1000BB1F661F771F881F91505040A9F79E3F18
:103E2000510570F017C061C05F3FECF3983EDCF3C2
:103E3000869577956795B795F795E7959F5FC1F755
:103E4000FE2B880F911D9695879597F908959927D0
:103E50008827089597F99F6780E870E060E00895EB
:103E60009FEF80EC089500240A9416161706180692
:103E70000906089500240A9412161306140605066E
:103E80000895092E0394000C11F4882352F0BB0FFF
:103E900040F4BF2B11F460FF04C06F5F7F4F8F4F62
:103EA0009F4F089557FD9058440F551F59F05F3F9D
:103EB00071F04795880F97FB991F61F09F3F79F04C
:103EC00087950895121613061406551FF2CF4695CE
:103ED000F1DF08C0161617061806991FF1CF869550
:103EE0007105610508940895E894BB276627772734
:103EF000CB0197F9089509D0A59F900DB49F900D1F
:103F0000A49F800D911D11240895A29FB001B39F1D
:103F1000C001A39F700D811D1124911DB29F700DD2
:103F2000811D1124911D08955058BB27AA270ED03A
:103F3000A8CF99DF30F09EDF20F031F49F3F11F4DD
:103F40001EF48ECF0EF4E095E7FB84CFE92FAADFB5
:103F500080F3BA17620773078407950718F071F4A6
:103F60009EF5C2CF0EF4E0950B2EBA2FA02D0B01BB
:103F7000B90190010C01CA01A0011124FF27591BAE
:103F800099F0593F50F4503E68F11A16F040A22FB4
:103F9000232F342F4427585FF3CF46953795279525
:103FA000A795F0405395C9F77EF41F16BA0B620B24
:103FB000730B840BBAF09150A1F0FF0FBB1F661F6B
:103FC000771F881FC2F70EC0BA0F621F731F841FAE
:103FD00048F4879577956795B795F7959E3F08F0D4
:103FE000B3CF9395880F08F09927EE0F9795879593
:103FF000089560DF88F09F5790F0B92F9927B75147
:10400000A0F0D1F0660F771F881F991F1AF0BA959C
:10401000C9F712C0B13081F067DFB1E0089564CF15
:10402000672F782F8827B85F39F0B93FCCF3869592
:1040300077956795B395D9F73EF4909580957095EF
:1040400061957F4F8F4F9F4F08957ADE08F48FEF71
:10405000089576DE880B990B0895A1E21A2EAA1B0B
:10406000BB1BFD010DC0AA1FBB1FEE1FFF1FA21728
:10407000B307E407F50720F0A21BB30BE40BF50B25
:10408000661F771F881F991F1A9469F760957095AE
:10409000809590959B01AC01BD01CF010895EE0F75
:1040A000FF1F881F8BBF0790F691E02D19942A0DF2
:1040B0003B1D4C1D5D1D6E1D7F1D801F911F0895B2
:1040C0002A153B054C055D056E057F0580079107A8
:1040D00008950F931F93CF93DF938230910510F4CF
:1040E00082E090E0E091B106F091B20630E020E08D
:1040F000B0E0A0E0309799F42115310509F44AC0E9
:10410000281B390B24303105D8F58A819B81611534
:10411000710589F1FB0193838283FE0111C0408107
:1041200051810281138148175907E0F04817590758
:1041300099F4109761F012960C93129713961C93B2
:104140003296CF01DF91CF911F910F910895009387
:10415000B1061093B206F4CF2115310551F0421784
:10416000530738F0A901DB019A01BD01DF01F80115
:10417000C1CFEF01F9CF9093B2068093B106CDCFB6
:10418000FE01E20FF31F819391932250310939838D
:104190002883D7CF2091AF063091B006232B41F46E
:1041A00020910802309109023093B0062093AF06A7
:1041B00020910602309107022115310541F42DB7F7
:1041C0003EB740910A0250910B02241B350BE0913F
:1041D000AF06F091B006E217F307A0F42E1B3F0BD9
:1041E0002817390778F0AC014E5F5F4F2417350769
:1041F00048F04E0F5F1F5093B0064093AF06819377
:1042000091939FCFF0E0E0E09CCFCF93DF930097B6
:10421000E9F0FC01329713821282A091B106B091AD
:10422000B206ED0130E020E01097A1F42081318149
:10423000820F931F2091AF063091B00628173907DF
:1042400009F061C0F093B006E093AF06DF91CF9123
:104250000895EA01CE17DF07E8F54A815B819E01E8
:1042600041155105B1F7E901FB83EA834991599161
:10427000C40FD51FEC17FD0761F480819181029670
:10428000840F951FE90199838883828193819B83A1
:104290008A83F0E0E0E012968D919C91139700974D
:1042A000B9F52D913C911197CD010296820F931F84
:1042B0002091AF063091B0062817390739F63097AC
:1042C00051F51092B2061092B106B093B006A093C9
:1042D000AF06BCCFD383C28340815181840F951F29
:1042E000C817D90761F44E5F5F4F88819981480FE5
:1042F000591F518340838A819B8193838283211537
:10430000310509F0B0CFF093B206E093B1069ECF2D
:10431000FD01DC01C0CF13821282D7CF4F925F9292
:104320006F927F928F929F92AF92BF92CF92DF92C5
:10433000EF92FF920F931F93CF93DF938C0100971F
:1043400091F4CB01DF91CF911F910F91FF90EF90EE
:10435000DF90CF90BF90AF909F908F907F906F90A5
:104360005F904F90B6CEFC01E60FF71F9C012250E4
:104370003109E217F30708F4AAC0D901CD91DC9105
:104380001197C617D70718F1C530D10570F0CE01C7
:1043900004978617970748F0C61BD70B2297C1933F
:1043A000D1936D937C93CF0130DFC801DF91CF9122
:1043B0001F910F91FF90EF90DF90CF90BF90AF9043
:1043C0009F908F907F906F905F904F9008955B01CA
:1043D000AC1ABD0A4C018C0E9D1EA091B106B09185
:1043E000B206512C412CF12CE12C109731F5809123
:1043F000AF069091B0068815990509F05CC0461685
:10440000570608F058C08091060290910702009765
:1044100041F48DB79EB740910A0250910B02841B64
:10442000950BE817F90708F052C0F093B006E09337
:10443000AF06F90171836083B8CF8D919C9111977C
:1044400012966C90129713967C901397A815B90545
:1044500059F56C0142E0C40ED11CCA14DB0420F1F2
:10446000AC014A195B09DA011296159780F0628255
:10447000738251834083D9016D937C93E114F104DD
:1044800071F0D7011396FC93EE9312978ECF22967C
:104490008C0F9D1FF90191838083F301EFCFF0937F
:1044A000B206E093B10681CF4816590608F42C01F4
:1044B0007D01D3019ACFCB010CDE7C01009739F04E
:1044C000AE01B80114D0C801A0DE87016ECF10E0A4
:1044D00000E06BCFFB01DC0104C08D9101908019DD
:1044E00021F441505040C8F7881B990B0895FB01F7
:1044F000DC0102C001900D9241505040D8F7089560
:10450000FC018191861721F08823D9F79927089516
:104510003197CF010895FB01DC0101900D9200203D
:10452000E1F70895FB01DC014150504048F0019053
:104530000D920020C9F701C01D9241505040E0F794
:104540000895CF93DF93CDB7DEB72E970FB6F894CB
:10455000DEBF0FBECDBF85E08C838C899D899A8399
:104560008983AE01485E5F4F6E897F89CE010196D7
:10457000A6D12E960FB6F894DEBF0FBECDBFDF9149
:10458000CF91089520FD09C0FC0123FD05C022FF45
:1045900002C07383628351834083089544FD17C032
:1045A00046FD1DC0DB01FC01AA0FBB1FEE1FFF1F54
:1045B0001094D1F76A0F7B1F8E1F9F1F660F771F06
:1045C000881F991F620F711D811D911D089533E091
:1045D000660F771F881F991F3150D1F7F3CF34E052
:1045E000F7CF0F931F93CF93DF938C01C8017DD238
:1045F000EC0197FD06C04BDB892BC1F7B801CE015A
:10460000B0D2CE01DF91CF911F910F9108958F927B
:104610009F92AF92BF92EF92FF920F931F93CF930F
:10462000DF938C01D62F7A01B22E5FD29C01332703
:104630002B32310529F02D323105A1F46894B7F8F9
:10464000D15061F480E0DF91CF911F910F91FF90E5
:10465000EF90BF90AF909F908F900895C80145D282
:1046600097FDF0CFCB2DCD7F2B2D2073E9F4803338
:10467000D9F4AA24AA94AD0E79F0C80136D297FDD8
:104680000BC0282F2F7D283559F4C264D25021F059
:10469000C8012BD297FF08C0812C912C54011AC05D
:1046A000B6FE29C0C260DA2D812C912C540120ED78
:1046B000280F283018F1C4FD09C02A30F8F0C6FFD1
:1046C00005C02F7D3FEE320F3630B8F0B80149D229
:1046D000C1FFB8CFC7FF08C0B094A0949094809455
:1046E000811C911CA11CB11C2C2FB501A401C70178
:1046F00049DF81E0A8CFC261D6CF27504C2FC5013A
:10470000B4014CDF4B015C01C260D15019F3C80108
:10471000ECD197FFCCCFDCCF7F928F929F92AF925C
:10472000BF92CF92DF92EF92FF920F931F93CF939E
:10473000DF93CDB7DEB7A0970FB6F894DEBF0FBEFC
:10474000CDBF5C01962E7A01CE0101966C0180E20C
:10475000F60111928A95E9F7F501B381890130E0FC
:1047600020E0712C812CA0E041E050E0F801B3FD85
:104770008591B3FF8191982F8F01811117C010E0AF
:1047800000E0C801A0960FB6F894DEBF0FBECDBF03
:10479000DF91CF911F910F91FF90EF90DF90CF901D
:1047A000BF90AF909F908F907F9008958E3519F4B1
:1047B0002115310541F1A21713064CF48D3549F14D
:1047C0008D3229F4811006C0882483941DC088206E
:1047D00009F462C0E92FE695E695E695EC0DFD2D0E
:1047E000F11D892F8770BA0101C0660F8A95EAF71B
:1047F0008081682B6083791651F0971510F49F5FC4
:10480000E9CF9150E7CFA1E02F5F3F4FAFCF812C91
:10481000FBCF882019F08E8180628E83AA2359F005
:10482000F6019E012F5D3F4F8081809580833196F8
:10483000E217F307C9F788248394C50156D197FD81
:1048400015C0E82FE695E695E695EC0DFD2DF11DDA
:10485000208130E0AC014770552702C0359527957F
:104860004A95E2F720FD05C0B5017BD1882069F0AB
:1048700086CFE114F10429F0F7018083C701019686
:104880007C019A94812C9110D8CFE114F10409F4A1
:1048900078CFF701108275CFE82FE695E695E6957B
:1048A000EC0DFD2DF11D982F9770BA0101C0660F18
:1048B0009A95EAF79081692B6083782EA5CF5F9255
:1048C0006F927F928F929F92AF92BF92CF92DF9220
:1048D000EF92FF920F931F93CF93DF936C01EB0145
:1048E0005A01FC0117821682512CF601E380FE0169
:1048F000E3FC8591E3FE8191182FEF018823C9F035
:1049000090E0C5D9892B19F0C6016BDEEECF1532C8
:1049100041F4FE01E3FC1591E3FE1191EF01153224
:1049200059F4C601E2D097FD88C01817F1F2B6011C
:1049300018D1852D90E085C000E01A3231F4E3FCF7
:104940001591E3FE1191EF0101E0F12C20ED210F13
:104950002A3038F101FF34C0FF2059F3183699F19D
:104960001C3609F43AC0112321F3612F70E084EE64
:1049700090E0B0D0892BE9F2912C812C00FD06C08B
:10498000F50180809180C50102965C011E3669F5B3
:10499000F6014681578170E060E0202FC401F2DD0E
:1049A000A4CF02606F2D70E090E080E040E2F6DD81
:1049B000F62EFE01E3FC1591E3FE1191EF01C6CF47
:1049C000FF24FA94CBCFFE01E3FC1591E3FE119195
:1049D000EF01183609F0C7CF08600460FE01E3FC60
:1049E0001591E3FE1191EF01BECF1336B9F401FD2D
:1049F00002C0FF24F394C60178D097FD1EC0811435
:104A0000910429F0F4018083C40101964C01FA94C9
:104A1000F110F1CF00FD69CF539467CF1B3509F535
:104A20009E01A4016F2DC60177DEEC01892B91F761
:104A3000F6018381807309F47CCF8FEF9FEF5110D3
:104A400078CFDF91CF911F910F91FF90EF90DF9082
:104A5000CF90BF90AF909F908F907F906F905F901E
:104A60000895C601BEDD97FDE8CF1F3689F130F409
:104A7000143641F0193639F0006405C01337B1F02F
:104A80001537D1F70062202FA4016F2DC601BFDDBD
:104A90008111C0CFCDCF8114910429F0F40160823F
:104AA000C40101964C01FA94FF2059F0C6011DD0B3
:104AB0003C0197FD06C0EBD8892B69F3B601C30111
:104AC00050D08114910409F4A5CFF4011082A2CF33
:104AD0000061D9CFFC010590061621F00020D9F71E
:104AE000C00108953197CF010895CF93DF93EC0172
:104AF0002B8120FF1AC026FF0CC02F7B2B838E81B9
:104B00009F8101969F838E838A8190E0DF91CF9170
:104B1000089522FF18C0E881F9818081082E000CD9
:104B2000990B009729F420622B838FEF9FEFEECF34
:104B30003196F983E8832E813F812F5F3F4F3F837A
:104B40002E839927E3CFEA85FB85199597FFF3CF4D
:104B50002B81019621F080E2822B8B83E6CF80E1CE
:104B6000FBCFFB01238120FF11C026FD0FC08F3F2B
:104B7000980771F082832F7D2064238326813781FB
:104B80002150310937832683992708958FEF9FEFAE
:064B90000895F894FFCF28
:104B9600FFFFFFFF01010000B306800000000000D8
:104BA60000000000000000000000000000000000FF
:104BB60000000000000000000000000000000912D4
:104BC6001812000000004D04AF03DC0399040D0425
:104BD600EB03FF0300000000E70FAF03CD0DAE03AC
:104BE600000000006405CB0F5405C50D3405560DB5
:104BF6005F0D6E616E00696E66006F7666000D0A67
:104C0600002F000900256C6400646174616C6F6795
:104C16002E6C6F6700094D505054206261736520F9
:104C2600636F646520696E69742E2E2E20004F4BCB
:104C3600004661696C004D5050542E6C6F670053EE
:104C460074617274696E67206C6F67004C6F67677A
:104C5600696E67204D5050542073746174652E2E12
:104C66002E002C00534420756E617661696C61627A
:104C76006C652073746F70206C6F6767696E670070
:00000001FF
